:020000040800F2
:100000000028002059120008FD1100080312000802
:10001000091200080F120008151200080000000065
:100020000000000000000000000000001B1200089B
:100030002712000800000000331200083F120008D9
:10004000A1120008A1120008A1120008A1120008C4
:10005000A1120008A1120008A1120008A1120008B4
:10006000A1120008A1120008A1120008A1120008A4
:10007000A1120008A1120008A1120008A112000894
:10008000A1120008A1120008A1120008A112000884
:10009000A1120008A1120008A1120008A112000874
:1000A000A1120008A1120008A1120008A112000864
:1000B000A1120008A112000800000000A11200080F
:1000C000A11200080000000000000000A1120008BA
:1000D00000000000A1120008A112000800000000AA
:1000E000A1120008A1120008A112000800000000DF
:1000F0000000000000000000000000000000000000
:0C01000000000000000000005FF808F1A3
:10010C0010B5054C237833B9044B13B10448AFF345
:10011C0000800123237010BD280000200000000087
:10012C00F820000808B5034B1BB103490348AFF393
:10013C00008008BD000000002C000020F820000802
:10014C0080B400AF424B1B68092B06DC414B0022EC
:10015C001A603F4B1B683F4A53603D4B19683E4B3E
:10016C0083FB01239A10CB17D21A13469B0013441E
:10017C005B00CA1A002A0DD1354B1B68364A82FB2C
:10018C0003129210DB17D31A324A1360314B002240
:10019C005A6018E02E4B1B682F4A82FB03129210F8
:1001AC00DB17D31A2B4A1360294B19682A4B83FB94
:1001BC0001239A10CB17D21A13469B0013445B00F1
:1001CC00CA1A244B5A60254B1B68092B06DC214BA1
:1001DC0000229A60214B1B681E4AD3601F4B196882
:1001EC001D4B83FB01239A10CB17D21A13469B008D
:1001FC0013445B00CA1A002A0DD1184B1B68164A0F
:10020C0082FB03129210DB17D31A124A9360114B24
:10021C000022DA6018E0114B1B680F4A82FB0312B4
:10022C009210DB17D31A0B4A93600C4B19680A4BCC
:10023C0083FB01239A10CB17D21A13469B0013444D
:10024C005B00CA1A034BDA6000BFBD4680BC704726
:10025C00000000200C000020676666660400002089
:10026C0080B500AFC94B1B68002B22D100220221A4
:10027C00C74801F0F5FA00220421C54801F0F0FA54
:10028C0000220821C24801F0EBFA00221021C048DC
:10029C0001F0E6FA00222021BD4801F0E1FA00222B
:1002AC004021BB4801F0DCFA01228021B84801F062
:1002BC00D7FAB64B1B68012B22D101220221B4487C
:1002CC0001F0CEFA00220421B14801F0C9FA002253
:1002DC000821AF4801F0C4FA01221021AC4801F00A
:1002EC00BFFA01222021AA4801F0BAFA01224021CA
:1002FC00A74801F0B5FA01228021A54801F0B0FA17
:10030C00A24B1B68022B22D100220221A04801F033
:10031C00A7FA002204219E4801F0A2FA012208212A
:10032C009B4801F09DFA00221021994801F098FA9F
:10033C0000222021964801F093FA01224021944892
:10034C0001F08EFA00228021914801F089FA8F4B3E
:10035C001B68032B22D1002202218D4801F080FA68
:10036C00002204218A4801F07BFA002208218848E7
:10037C0001F076FA00221021854801F071FA012271
:10038C002021834801F06CFA01224021804801F0C1
:10039C0067FA002280217E4801F062FA7B4B1B68D1
:1003AC00042B22D101220221794801F059FA0022B2
:1003BC000421774801F054FA00220821744801F016
:1003CC004FFA01221021724801F04AFA0122202131
:1003DC006F4801F045FA002240216D4801F040FAC7
:1003EC00002280216A4801F03BFA684B1B68052B00
:1003FC0022D100220221664801F032FA01220421A6
:10040C00634801F02DFA00220821614801F028FA16
:10041C00002210215E4801F023FA012220215C48C1
:10042C0001F01EFA00224021594801F019FA00226D
:10043C008021574801F014FA544B1B68062B22D12B
:10044C0000220221524801F00BFA012204215048EB
:10045C0001F006FA002208214D4801F001FA0022B1
:10046C0010214B4801F0FCF900222021484801F0F2
:10047C00F7F900224021464801F0F2F900228021D0
:10048C00434801F0EDF9414B1B68072B22D10022A8
:10049C0002213F4801F0E4F9002204213C4801F01C
:1004AC00DFF9002208213A4801F0DAF90122102183
:1004BC00374801F0D5F901222021354801F0D0F957
:1004CC0001224021324801F0CBF901228021304831
:1004DC0001F0C6F92D4B1B68082B22D100220221FA
:1004EC002B4801F0BDF900220421294801F0B8F98C
:1004FC0000220821264801F0B3F9002210212448DB
:10050C0001F0AEF900222021214801F0A9F90022C6
:10051C0040211F4801F0A4F9002280211C4801F061
:10052C009FF91A4B1B68092B22D100220221184873
:10053C0001F096F900220421154801F091F90022EE
:10054C000821134801F08CF900221021104801F009
:10055C0087F9012220210E4801F082F90022402166
:10056C000B4801F07DF900228021094801F078F94F
:10057C00064B5B68002B2ED100224FF4807104488F
:10058C0001F06EF900224FF4007103E00C00002022
:10059C0000080140D04801F063F900224FF480615B
:1005AC00CD4801F05DF900224FF40061CA4801F01A
:1005BC0057F900224FF48051C74801F051F900223D
:1005CC004FF40051C44801F04BF901224FF4804123
:1005DC00C14801F045F9C14B5B68012B29D10122BF
:1005EC004FF48071BC4801F03BF900224FF40071CC
:1005FC00B94801F035F900224FF48061B64801F09A
:10060C002FF901224FF40061B34801F029F90122BE
:10061C004FF48051B04801F023F901224FF40051FE
:10062C00AD4801F01DF901224FF48041AA4801F0B8
:10063C0017F9AA4B5B68022B29D100224FF4807169
:10064C00A54801F00DF900224FF40071A24801F009
:10065C0007F900224FF480619F4801F001F9012253
:10066C004FF400619C4801F0FBF800224FF48051DC
:10067C00994801F0F5F801224FF40051964801F029
:10068C00EFF800224FF48041934801F0E9F8934BC6
:10069C005B68032B29D100224FF480718E4801F046
:1006AC00DFF800224FF400718B4801F0D9F80022DA
:1006BC004FF48061884801F0D3F800224FF40061B8
:1006CC00854801F0CDF801224FF48051824801F0A9
:1006DC00C7F801224FF400517F4801F0C1F8002205
:1006EC004FF480417C4801F0BBF87C4B5B68042BD9
:1006FC0029D101224FF48071774801F0B1F8002222
:10070C004FF40071744801F0ABF800224FF4806193
:10071C00714801F0A5F801224FF400616E4801F018
:10072C009FF801224FF480516B4801F099F8002298
:10073C004FF40051684801F093F800224FF48041C7
:10074C00654801F08DF8654B5B68052B29D10022BB
:10075C004FF48071604801F083F801224FF400716E
:10076C005D4801F07DF800224FF480615A4801F099
:10077C0077F800224FF40061574801F071F801221C
:10078C004FF48051544801F06BF800224FF40051A3
:10079C00514801F065F800224FF480414E4801F0B9
:1007AC005FF84E4B5B68062B29D100224FF4807109
:1007BC00494801F055F801224FF40071464801F008
:1007CC004FF800224FF48061434801F049F80022B1
:1007DC004FF40061404801F043F800224FF480517F
:1007EC003D4801F03DF800224FF400513A4801F029
:1007FC0037F800224FF48041374801F031F8374B7D
:10080C005B68072B29D100224FF48071324801F02C
:10081C0027F800224FF400712F4801F021F8002234
:10082C004FF480612C4801F01BF801224FF4006159
:10083C00294801F015F801224FF48051264801F0A7
:10084C000FF801224FF40051234801F009F801225E
:10085C004FF48041204801F003F8204B5B68082BD3
:10086C0029D100224FF480711B4800F0F9FF0022BF
:10087C004FF40071184800F0F3FF00224FF4806130
:10088C00154800F0EDFF00224FF40061124800F013
:10089C00E7FF00224FF480510F4800F0E1FF0022E7
:1008AC004FF400510C4800F0DBFF00224FF4804164
:1008BC00094800F0D5FF094B5B68092B2ED10022AB
:1008CC004FF48071044800F0CBFF00224FF400710C
:1008DC00014800F0C5FF03E0000801400C000020B7
:1008EC0000224FF48061CA4800F0BAFF00224FF496
:1008FC000061C74800F0B4FF01224FF48051C44896
:10090C0000F0AEFF00224FF40051C14800F0A8FFE8
:10091C0000224FF48041BE4800F0A2FFBD4B9B6803
:10092C00002B22D100220121BB4800F099FF0022AC
:10093C000221B94800F094FF00220421B64800F0CF
:10094C008FFF00220821B44800F08AFF00221021FA
:10095C00B14800F085FF00222021AF4800F080FF55
:10096C0001224021AC4800F07BFFAA4B9B68012B75
:10097C0022D101220121A84800F072FF002202219D
:10098C00A54800F06DFF00220421A34800F068FF89
:10099C0001220821A04800F063FF012210219E488B
:1009AC0000F05EFF012220219B4800F059FF01223C
:1009BC004021994800F054FF964B9B68022B22D1A2
:1009CC0000220121944800F04BFF002202219248A2
:1009DC0000F046FF012204218F4800F041FF002265
:1009EC0008218D4800F03CFF002210218A4800F0BD
:1009FC0037FF01222021884800F032FF00224021DD
:100A0C00854800F02DFF834B9B68032B22D10022DD
:100A1C000121814800F024FF002202217E4800F0D1
:100A2C001FFF002204217C4800F01AFF002208213D
:100A3C00794800F015FF01221021774800F010FFD3
:100A4C0001222021744800F00BFF00224021724843
:100A5C0000F006FF6F4B9B68042B22D10122012171
:100A6C006D4800F0FDFE002202216B4800F0F8FEFC
:100A7C0000220421684800F0F3FE01220821664898
:100A8C0000F0EEFE01221021634800F0E9FE002286
:100A9C002021614800F0E4FE002240215E4800F075
:100AAC00DFFE5C4B9B68052B22D1002201215A48AA
:100ABC0000F0D6FE01220221574800F0D1FE0022A0
:100ACC000421554800F0CCFE00220821524800F0C9
:100ADC00C7FE01221021504800F0C2FE0022202146
:100AEC004D4800F0BDFE002240214B4800F0B8FEFE
:100AFC00484B9B68062B22D100220121464800F06E
:100B0C00AFFE01220221444800F0AAFE002204217B
:100B1C00414800F0A5FE002208213F4800F0A0FE4D
:100B2C00002210213C4800F09BFE002220213A4874
:100B3C0000F096FE00224021374800F091FE354B24
:100B4C009B68072B22D100220121334800F088FE3C
:100B5C0000220221304800F083FE002204212E489E
:100B6C0000F07EFE012208212B4800F079FE0122C4
:100B7C001021294800F074FE01222021264800F0A3
:100B8C006FFE01224021244800F06AFE214B9B6835
:100B9C00082B22D1002201211F4800F061FE002207
:100BAC0002211D4800F05CFE002204211A4800F0CE
:100BBC0057FE00220821184800F052FE0022102196
:100BCC00154800F04DFE00222021134800F048FE8D
:100BDC0000224021104800F043FE0E4B9B68092B6D
:100BEC0029D1002201210C4800F03AFE00220221FA
:100BFC00094800F035FE00220421074800F030FEC1
:100C0C0000220821044800F02BFE0122102105E0EF
:100C1C00000801400C000020000C0140CF4800F0FF
:100C2C001FFE00222021CD4800F01AFE0022402198
:100C3C00CA4800F015FECA4BDB68002B28D10022F5
:100C4C008021C64800F00CFE00224FF48071C3488E
:100C5C0000F006FE00224FF40071C04800F000FEC8
:100C6C0000224FF48061BD4800F0FAFD00224FF4E1
:100C7C000061BA4800F0F4FD00224FF48051B748EF
:100C8C0000F0EEFD01224FF40051B44800F0E8FDF5
:100C9C00B34BDB68012B28D101228021AF4800F037
:100CAC00DFFD00224FF48071AC4800F0D9FD00222A
:100CBC004FF40071A94800F0D3FD01224FF480617C
:100CCC00A64800F0CDFD01224FF40061A34800F0CE
:100CDC00C7FD01224FF48051A04800F0C1FD012254
:100CEC004FF400519D4800F0BBFD9D4BDB68022B7F
:100CFC0028D100228021994800F0B2FD00224FF447
:100D0C008071964800F0ACFD01224FF400719348BD
:100D1C0000F0A6FD00224FF48061904800F0A0FD89
:100D2C0000224FF400618D4800F09AFD01224FF42F
:100D3C0080518A4800F094FD00224FF400518748FE
:100D4C0000F08EFD864BDB68032B28D1002280211E
:100D5C00824800F085FD00224FF480717F4800F03E
:100D6C007FFD00224FF400717C4800F079FD0022D9
:100D7C004FF48061794800F073FD01224FF400615B
:100D8C00764800F06DFD01224FF48051734800F05D
:100D9C0067FD00224FF40051704800F061FD704B6C
:100DAC00DB68042B28D1012280216C4800F058FD0F
:100DBC0000224FF48071694800F052FD00224FF47C
:100DCC000071664800F04CFD01224FF480616348CD
:100DDC0000F046FD01224FF40061604800F040FD38
:100DEC0000224FF480515D4800F03AFD00224FF490
:100DFC0000515A4800F034FD594BDB68052B28D1C3
:100E0C0000228021554800F02BFD01224FF4807107
:100E1C00524800F025FD00224FF400714F4800F0BD
:100E2C001FFD00224FF480614C4800F019FD012297
:100E3C004FF40061494800F013FD00224FF480513B
:100E4C00464800F00DFD00224FF40051434800F0DD
:100E5C0007FD434BDB68062B28D1002280213F483D
:100E6C0000F0FEFC01224FF480713C4800F0F8FCCD
:100E7C0000224FF40071394800F0F2FC00224FF4CC
:100E8C008061364800F0ECFC00224FF400613348DE
:100E9C0000F0E6FC00224FF48051304800F0E0FCFA
:100EAC0000224FF400512D4800F0DAFC2C4BDB688B
:100EBC00072B28D100228021284800F0D1FC0022E9
:100ECC004FF48071254800F0CBFC00224FF40071E8
:100EDC00224800F0C5FC01224FF480611F4800F04D
:100EEC00BFFC01224FF400611C4800F0B9FC012248
:100EFC004FF48051194800F0B3FC01224FF400511B
:100F0C00164800F0ADFC164BDB68082B2DD10022E7
:100F1C008021124800F0A4FC00224FF480710F488D
:100F2C0000F09EFC00224FF400710C4800F098FC7D
:100F3C0000224FF48061094800F092FC00224FF42B
:100F4C000061064800F08CFC00224FF480510348ED
:100F5C0000F086FC00224FF4005103E0000C01402D
:100F6C000C000020184800F07BFC184BDB68092BA8
:100F7C0028D100228021144800F072FC00224FF48A
:100F8C008071114800F06CFC00224FF400710E4887
:100F9C0000F066FC00224FF480610B4800F060FC0E
:100FAC0001224FF40061084800F05AFC00224FF473
:100FBC008051054800F054FC00224FF400510248C7
:100FCC0000F04EFC00BF80BD000C01400C00002066
:100FDC0080B500AF00F060F900F040F800F07AF84E
:100FEC001A4B1B680133194A1360184B1B683B2BB7
:100FFC0007DD164B00221A60154B1B680133144A8F
:10100C001360134B1B683B2B07DD114B00221A603E
:10101C00104B1B6801330F4A13600E4B1B68172BC8
:10102C0002DD0C4B00221A60FFF78AF84FF40041E6
:10103C00094800F02DFC4FF48041074800F028FCD3
:10104C00FFF70EF90A2000F089F9C9E70800002023
:10105C000400002000000020000C014080B590B07E
:10106C0000AF07F1180328220021184601F036F8CA
:10107C003B1D00221A605A609A60DA601A610223E2
:10108C00BB610123BB621023FB6200237B6307F16E
:10109C001803184600F016FC0346002B01D000F094
:1010AC006FF80F237B600023BB600023FB600023E1
:1010BC003B6100237B613B1D0021184600F082FE42
:1010CC000346002B01D000F05BF800BF4037BD4653
:1010DC0080BD000080B586B000AF07F10803002288
:1010EC001A605A609A60DA60224B9B69214A43F07D
:1010FC00040393611F4B9B6903F004037B607B68C3
:10110C001C4B9B691B4A43F008039361194B9B6969
:10111C0003F008033B603B6800224FF6FE71164853
:10112C0000F09EFB00224FF6FF71144800F098FB74
:10113C004FF6FE73BB600123FB6000233B6102236F
:10114C007B6107F1080319460B4800F00FFA4FF6C4
:10115C00FF73BB600123FB6000233B6102237B61B7
:10116C0007F108031946054800F000FA00BF1837CC
:10117C00BD4680BD0010024000080140000C01403B
:10118C0080B400AF72B600BFFEE7000080B485B03B
:10119C0000AF154B9B69144A43F001039361124B4A
:1011AC009B6903F00103BB60BB680F4BDB690E4A04
:1011BC0043F08053D3610C4BDB6903F080537B60AD
:1011CC007B680A4B5B68FB60FB6823F0E063FB60A9
:1011DC00FB6843F08063FB60044AFB68536000BF0C
:1011EC001437BD4680BC704700100240000001401F
:1011FC0080B400AFFEE780B400AFFEE780B400AF70
:10120C00FEE780B400AFFEE780B400AFFEE780B429
:10121C0000AF00BFBD4680BC704780B400AF00BFBC
:10122C00BD4680BC704780B400AF00BFBD4680BCDB
:10123C00704780B500AF00F075F800BF80BD80B47A
:10124C0000AF00BFBD4680BC704700000C480D4984
:10125C000D4A002302E0D458C4500433C4188C4205
:10126C00F9D30A4A0A4C002301E013600432A2426B
:10127C00FBD3FFF7E4FF00F00DFFFFF7A9FE70476B
:10128C000000002028000020382100082800002041
:10129C0048000020FEE7000080B500AF084B1B683B
:1012AC00074A43F010031360032000F02BF90F20C2
:1012BC0000F008F8FFF76AFF0023184680BD00BF56
:1012CC000020024080B582B000AF7860124B1A68E3
:1012DC00124B1B7819464FF47A73B3FBF1F3B2FB44
:1012EC00F3F3184600F035F90346002B01D0012327
:1012FC000EE07B680F2B0AD8002279684FF0FF3084
:10130C0000F00BF9064A7B681360002300E0012310
:10131C0018460837BD4680BD1C0000202400002064
:10132C002000002080B400AF054B1B781A46054BFB
:10133C001B681344034A136000BFBD4680BC704752
:10134C00240000204400002080B400AF024B1B6836
:10135C001846BD4680BC70474400002080B584B060
:10136C0000AF7860FFF7F0FFB8607B68FB60FB684C
:10137C00B3F1FF3F05D00A4B1B781A46FB681344A8
:10138C00FB6000BFFFF7E0FF0246BB68D31AFA68A8
:10139C009A42F7D800BF00BF1037BD4680BD00BFD2
:1013AC002400002080B485B000AF78607B6803F027
:1013BC000703FB600C4BDB68BB60BA684FF6FF039E
:1013CC001340BB60FB681A02BB68134343F0BF6356
:1013DC0043F40033BB60044ABB68D36000BF1437CE
:1013EC00BD4680BC704700BF00ED00E080B400AF8C
:1013FC00044BDB681B0A03F007031846BD4680BC90
:10140C00704700BF00ED00E080B483B000AF03462E
:10141C003960FB7197F90730002B0ADB3B68DAB2B5
:10142C000C4997F907301201D2B20B4483F8002310
:10143C000AE03B68DAB20849FB7903F00F03043B7E
:10144C001201D2B20B441A7600BF0C37BD4680BCD9
:10145C00704700BF00E100E000ED00E080B489B00F
:10146C0000AFF860B9607A60FB6803F00703FB61BA
:10147C00FB69C3F10703042B28BF0423BB61FB6981
:10148C000433062B02D9FB69033B00E000237B618C
:10149C004FF0FF32BB6902FA03F3DA43BB681A4020
:1014AC007B699A404FF0FF317B6901FA03F3D94312
:1014BC007B680B40134318462437BD4680BC7047ED
:1014CC0080B582B000AF78607B68013BB3F1807F60
:1014DC0001D301230FE00A4A7B68013B53600F21C3
:1014EC004FF0FF30FFF790FF054B00229A60044B42
:1014FC0007221A60002318460837BD4680BD00BF7E
:10150C0010E000E080B582B000AF78607868FFF73B
:10151C0049FF00BF0837BD4680BD80B586B000AF1F
:10152C000346B9607A60FB7300237B61FFF75EFFB3
:10153C0078617A68B9687869FFF790FF024697F985
:10154C000F3011461846FFF75FFF00BF1837BD4636
:10155C0080BD80B582B000AF78607868FFF7B0FFCF
:10156C00034618460837BD4680BD000080B48BB0DA
:10157C0000AF7860396000237B6200233B6248E156
:10158C0001227B6A02FA03F3FB613B681B68FA6970
:10159C001340BB61BA69FB699A4240F037813B68E2
:1015AC005B68A34A93425ED0A14A934275D8A14A84
:1015BC00934258D09F4A93426FD89F4A934252D03D
:1015CC009D4A934269D89D4A93424CD09B4A934280
:1015DC0063D89B4A934246D0994A93425DD8122BCA
:1015EC002AD8122B59D801A252F823F073160008EE
:1015FC004D1600085F160008A1160008A716000873
:10160C00A7160008A7160008A7160008A7160008BA
:10161C00A7160008A7160008A7160008A7160008AA
:10162C00A7160008A7160008A7160008A71600089A
:10163C005516000869160008824A934213D02CE014
:10164C003B68DB683B6229E03B68DB6804333B6248
:10165C0024E03B68DB6808333B621FE03B68DB68D7
:10166C000C333B621AE03B689B68002B02D10423CD
:10167C003B6213E03B689B68012B05D108233B625E
:10168C007B68FA691A6109E008233B627B68FA6996
:10169C005A6103E000233B6200E000BFBB69FF2BF3
:1016AC0001D87B6801E07B6804337B61BB69FF2B4D
:1016BC0002D87B6A9B0002E07B6A083B9B003B6183
:1016CC007B691A680F213B6901FA03F3DB431A406B
:1016DC00396A3B6901FA03F31A437B691A603B6868
:1016EC005B6803F08053002B00F09080564B9B6995
:1016FC00554A43F001039361534B9B6903F001037B
:10170C00BB60BB68514A7B6A9B08023352F823309A
:10171C00FB607B6A03F003039B000F2202FA03F3C6
:10172C00DB43FA681340FB607B68494A93420DD057
:10173C007B68484A934207D07B68474A934201D161
:10174C00022304E0032302E0012300E000237A6A71
:10175C0002F0030292009340FA681343FB603B498A
:10176C007B6A9B080233FA6841F823203B685B686C
:10177C0003F48033002B06D0384B1A683749BB6909
:10178C0013430B6006E0354B1A68BB69DB433349E6
:10179C0013400B603B685B6803F40033002B06D0EE
:1017AC002E4B5A682D49BB6913434B6006E02B4BFB
:1017BC005A68BB69DB43294913404B603B685B6843
:1017CC0003F48013002B06D0244B9A682349BB6981
:1017DC0013438B6006E0214B9A68BB69DB431F49BE
:1017EC0013408B603B685B6803F40013002B06D03E
:1017FC001A4BDA681949BB691343CB6006E0174BE7
:10180C00DA68BB69DB4315491340CB607B6A013353
:10181C007B623B681A687B6A22FA03F3002B7FF425
:10182C00AFAE00BF00BF2C37BD4680BC704700BFB9
:10183C0000003210000031100000221000002110B6
:10184C0000001210000011100010024000000140B6
:10185C0000080140000C0140001001400004014050
:10186C0080B483B000AF78600B467B8013467B70EE
:10187C007B78002B03D07A887B681A6103E07B8825
:10188C001A047B681A6100BF0C37BD4680BC7047D8
:10189C0080B485B000AF78600B467B807B68DB68DA
:1018AC00FB607A88FB6813401A04FB68D9437B8879
:1018BC000B401A437B681A6100BF1437BD4680BCCD
:1018CC007047000080B586B000AF78607B68002B55
:1018DC0001D101236CE27B681B6803F00103002B30
:1018EC0000F08780924B5B6803F00C03042B0CD048
:1018FC008F4B5B6803F00C03082B12D18C4B5B688D
:10190C0003F48033B3F5803F0BD1894B1B6803F490
:10191C000033002B6CD07B685B68002B68D10123F3
:10192C0046E27B685B68B3F5803F06D1804B1B6851
:10193C007F4A43F4803313602EE07B685B68002B96
:10194C000CD17B4B1B687A4A23F480331360784BA1
:10195C001B68774A23F4802313601DE07B685B6867
:10196C00B3F5A02F0CD1724B1B68714A43F4802342
:10197C0013606F4B1B686E4A43F4803313600BE0AB
:10198C006B4B1B686A4A23F480331360684B1B68EB
:10199C00674A23F4802313607B685B68002B13D0A9
:1019AC00FFF7D2FC386108E0FFF7CEFC02463B693A
:1019BC00D31A642B01D90323FAE15D4B1B6803F4A2
:1019CC000033002BF0D014E0FFF7BEFC386108E0C8
:1019DC00FFF7BAFC02463B69D31A642B01D90323E7
:1019EC00E6E1534B1B6803F40033002BF0D100E00D
:1019FC0000BF7B681B6803F00203002B63D04C4BC9
:101A0C005B6803F00C03002B0BD0494B5B6803F0B5
:101A1C000C03082B1CD1464B5B6803F48033002B62
:101A2C0016D1434B1B6803F00203002B05D07B68D7
:101A3C001B69012B01D00123BAE13D4B1B6823F03C
:101A4C00F8027B685B69DB00394913430B603AE0B1
:101A5C007B681B69002B20D0364B01221A60FFF7E4
:101A6C0073FC386108E0FFF76FFC02463B69D31A40
:101A7C00022B01D903239BE12D4B1B6803F00203BE
:101A8C00002BF0D02A4B1B6823F0F8027B685B69B3
:101A9C00DB00274913430B6015E0264B00221A602C
:101AAC00FFF752FC386108E0FFF74EFC02463B6939
:101ABC00D31A022B01D903237AE11D4B1B6803F0C7
:101ACC000203002BF0D17B681B6803F00803002B8A
:101ADC003AD07B689B69002B19D0174B01221A60F6
:101AEC00FFF732FC386108E0FFF72EFC02463B6939
:101AFC00D31A022B01D903235AE10D4B5B6A03F075
:101B0C000203002BF0D0012000F0A6FA1CE00A4BD7
:101B1C0000221A60FFF718FC38610FE0FFF714FC85
:101B2C0002463B69D31A022B08D9032340E100BFBC
:101B3C000010024000004242800442429E4B5B6A0D
:101B4C0003F00203002BE9D17B681B6803F004034C
:101B5C00002B00F0A6800023FB75974BDB6903F08C
:101B6C008053002B0DD1944BDB69934A43F0805387
:101B7C00D361914BDB6903F08053BB60BB680123DD
:101B8C00FB758E4B1B6803F48073002B18D18B4BA9
:101B9C001B688A4A43F480731360FFF7D5FB3861E6
:101BAC0008E0FFF7D1FB02463B69D31A642B01D93D
:101BBC000323FDE0814B1B6803F48073002BF0D0F2
:101BCC007B68DB68012B06D17B4B1B6A7A4A43F09E
:101BDC00010313622DE07B68DB68002B0CD1764B84
:101BEC001B6A754A23F001031362734B1B6A724A1A
:101BFC0023F0040313621CE07B68DB68052B0CD11B
:101C0C006D4B1B6A6C4A43F0040313626A4B1B6AEC
:101C1C00694A43F0010313620BE0674B1B6A664A87
:101C2C0023F001031362644B1B6A634A23F0040321
:101C3C0013627B68DB68002B15D0FFF785FB3861DE
:101C4C000AE0FFF781FB02463B69D31A41F2883266
:101C5C00934201D90323ABE0574B1B6A03F00203F9
:101C6C00002BEED014E0FFF76FFB38610AE0FFF7B2
:101C7C006BFB02463B69D31A41F28832934201D97D
:101C8C00032395E04C4B1B6A03F00203002BEED1AF
:101C9C00FB7D012B05D1484BDB69474A23F0805370
:101CAC00D3617B68DB69002B00F08180424B5B6861
:101CBC0003F00C03082B61D07B68DB69022B46D147
:101CCC003F4B00221A60FFF73FFB386108E0FFF73B
:101CDC003BFB02463B69D31A022B01D9032367E075
:101CEC00354B1B6803F00073002BF0D17B681B6A2B
:101CFC00B3F5803F08D1304B5B6823F400327B682E
:101D0C009B682D4913434B602B4B5B6823F4741277
:101D1C007B68196A7B685B6A0B43274913434B60EA
:101D2C00274B01221A60FFF70FFB386108E0FFF721
:101D3C000BFB02463B69D31A022B01D9032337E074
:101D4C001D4B1B6803F00073002BF0D02FE01C4BD5
:101D5C0000221A60FFF7F8FA386108E0FFF7F4FA8E
:101D6C0002463B69D31A022B01D9032320E0124B04
:101D7C001B6803F00073002BF0D118E07B68DB6963
:101D8C00012B01D1012313E00B4B5B68FB60FB685B
:101D9C0003F480327B681B6A9A4206D1FB6803F419
:101DAC0070127B685B6A9A4201D0012300E0002329
:101DBC0018461837BD4680BD001002400070004028
:101DCC006000424280B584B000AF786039607B68B7
:101DDC00002B01D10123D0E06A4B1B6803F00703F1
:101DEC003A689A4210D9674B1B6823F00702654981
:101DFC003B6813430B60634B1B6803F007033A68A3
:101E0C009A4201D00123B8E07B681B6803F00203FF
:101E1C00002B20D07B681B6803F00403002B05D03B
:101E2C00594B5B68584A43F4E06353607B681B680A
:101E3C0003F00803002B05D0534B5B68524A43F464
:101E4C0060535360504B5B6823F0F0027B689B68D7
:101E5C004D4913434B607B681B6803F00103002B57
:101E6C0040D07B685B68012B07D1474B1B6803F4A0
:101E7C000033002B15D101237FE07B685B68022BBC
:101E8C0007D1414B1B6803F00073002B09D10123D0
:101E9C0073E03D4B1B6803F00203002B01D10123BF
:101EAC006BE0394B5B6823F003027B685B68364957
:101EBC0013434B60FFF748FAF8600AE0FFF744FA67
:101ECC000246FB68D31A41F28832934201D90323AC
:101EDC0053E02D4B5B6803F00C027B685B689B0046
:101EEC009A42EBD1274B1B6803F007033A689A42DE
:101EFC0010D2244B1B6823F0070222493B68134382
:101F0C000B60204B1B6803F007033A689A4201D020
:101F1C00012332E07B681B6803F00403002B08D01C
:101F2C00194B5B6823F4E0627B68DB68164913434A
:101F3C004B607B681B6803F00803002B09D0124B25
:101F4C005B6823F460527B681B69DB000E4913430A
:101F5C004B6000F021F802460B4B5B681B0903F049
:101F6C000F030A49CB5C22FA03F3094A1360094BAD
:101F7C001B681846FFF7A6F9002318461037BD4614
:101F8C0080BD00BF0020024000100240202100084C
:101F9C001C0000202000002090B48AB000AF2A4B17
:101FAC003C1D0FCB84E80F0040F201233B80002343
:101FBC00FB610023BB6100237B6200237B61002358
:101FCC003B62224B5B68FB61FB6903F00C03042B47
:101FDC0002D0082B03D02DE01D4B3B622DE0FB699A
:101FEC009B0C03F00F0307F12802134413F8243C55
:101FFC007B61FB6903F48033002B13D0134B5B68BC
:10200C005B0C03F0010307F12802134413F8283C7E
:10201C00BB617B690E4A02FB03F2BB69B2FBF3F3B3
:10202C007B6204E07B690B4A02FB03F37B627B6AF5
:10203C003B6202E0064B3B6200BF3B6A1846283706
:10204C00BD4690BC704700BF102100080010024034
:10205C0000127A0000093D0080B485B000AF7860B2
:10206C000A4B1B680A4AA2FB03235B0A7A6802FB31
:10207C0003F3FB6000BFFB685A1EFA60002BF9D11A
:10208C0000BF00BF1437BD4680BC70471C00002049
:10209C00D34D621070B500260C4D0D4C641BA41072
:1020AC00A64209D100F022F800260A4D0A4C641B06
:1020BC00A410A64205D170BD55F8043B98470136D3
:1020CC00EEE755F8043B98470136F2E7302100085B
:1020DC003021000830210008342100080346024456
:1020EC00934200D1704703F8011BF9E7F8B500BF24
:1020FC00F8BC08BC9E467047F8B500BFF8BC08BCDD
:04210C009E46704734
:1021100002030405060708090A0B0C0D0E0F101028
:102120000000000000000000010203040607080987
:042130003101000871
:042134000D01000891
:102138000F0000000800000032000000010000004D
:102148000200000003000000040000000024F40066
:0821580010000000010000006E
:040000050800125984
:00000001FF
