:020000040800F2
:1000000000280020E5130008751300087B13000882
:1000100081130008871300088D13000800000000FA
:100020000000000000000000000000009313000822
:100030009F13000800000000AB130008B71300086E
:100040002D1400082D1400082D1400082D1400088C
:100050002D1400082D1400082D1400082D1400087C
:100060002D1400082D1400082D1400082D1400086C
:100070002D1400082D1400082D1400082D1400085C
:100080002D1400082D1400082D1400082D1400084C
:100090002D1400082D1400082D1400082D1400083C
:1000A0002D1400082D1400082D1400082D1400082C
:1000B000C51300082D140008000000002D140008CE
:1000C0002D14000800000000000000002D1400089E
:1000D000000000002D1400082D140008000000008E
:1000E0002D1400082D1400082D1400080000000035
:1000F0000000000000000000000000000000000000
:0C01000000000000000000005FF808F1A3
:10010C0010B5054C237833B9044B13B10448AFF345
:10011C0000800123237010BD2C0000200000000083
:10012C00582A000808B5034B1BB103490348AFF329
:10013C00008008BD0000000030000020582A000894
:10014C0080B400AF424B1B68092B06DC414B0022EC
:10015C001A603F4B1B683F4A53603D4B19683E4B3E
:10016C0083FB01239A10CB17D21A13469B0013441E
:10017C005B00CA1A002A0DD1354B1B68364A82FB2C
:10018C0003129210DB17D31A324A1360314B002240
:10019C005A6018E02E4B1B682F4A82FB03129210F8
:1001AC00DB17D31A2B4A1360294B19682A4B83FB94
:1001BC0001239A10CB17D21A13469B0013445B00F1
:1001CC00CA1A244B5A60254B1B68092B06DC214BA1
:1001DC0000229A60214B1B681E4AD3601F4B196882
:1001EC001D4B83FB01239A10CB17D21A13469B008D
:1001FC0013445B00CA1A002A0DD1184B1B68164A0F
:10020C0082FB03129210DB17D31A124A9360114B24
:10021C000022DA6018E0114B1B680F4A82FB0312B4
:10022C009210DB17D31A0B4A93600C4B19680A4BCC
:10023C0083FB01239A10CB17D21A13469B0013444D
:10024C005B00CA1A034BDA6000BFBD4680BC704726
:10025C00000000200C000020676666660400002089
:10026C0080B500AFC94B1B68002B22D100220221A4
:10027C00C74801F0C1FB00220421C54801F0BCFBBA
:10028C0000220821C24801F0B7FB00221021C0480F
:10029C0001F0B2FB00222021BD4801F0ADFB002291
:1002AC004021BB4801F0A8FB01228021B84801F095
:1002BC00A3FBB64B1B68012B22D101220221B448AF
:1002CC0001F09AFB00220421B14801F095FB0022B9
:1002DC000821AF4801F090FB01221021AC4801F03D
:1002EC008BFB01222021AA4801F086FB0122402130
:1002FC00A74801F081FB01228021A54801F07CFB7D
:10030C00A24B1B68022B22D100220221A04801F033
:10031C0073FB002204219E4801F06EFB0122082190
:10032C009B4801F069FB00221021994801F064FB05
:10033C0000222021964801F05FFB012240219448C5
:10034C0001F05AFB00228021914801F055FB8F4BA4
:10035C001B68032B22D1002202218D4801F04CFB9B
:10036C00002204218A4801F047FB0022082188481A
:10037C0001F042FB00221021854801F03DFB0122D7
:10038C002021834801F038FB01224021804801F0F4
:10039C0033FB002280217E4801F02EFB7B4B1B6837
:1003AC00042B22D101220221794801F025FB0022E5
:1003BC000421774801F020FB00220821744801F049
:1003CC001BFB01221021724801F016FB0122202197
:1003DC006F4801F011FB002240216D4801F00CFB2D
:1003EC00002280216A4801F007FB684B1B68052B33
:1003FC0022D100220221664801F0FEFA01220421DA
:10040C00634801F0F9FA00220821614801F0F4FA7E
:10041C00002210215E4801F0EFFA012220215C48F5
:10042C0001F0EAFA00224021594801F0E5FA0022D5
:10043C008021574801F0E0FA544B1B68062B22D15F
:10044C0000220221524801F0D7FA0122042150481F
:10045C0001F0D2FA002208214D4801F0CDFA002219
:10046C0010214B4801F0C8FA00222021484801F025
:10047C00C3FA00224021464801F0BEFA0022802136
:10048C00434801F0B9FA414B1B68072B22D10022DB
:10049C0002213F4801F0B0FA002204213C4801F04F
:1004AC00ABFA002208213A4801F0A6FA01221021E9
:1004BC00374801F0A1FA01222021354801F09CFABD
:1004CC0001224021324801F097FA01228021304864
:1004DC0001F092FA2D4B1B68082B22D1002202212D
:1004EC002B4801F089FA00220421294801F084FAF2
:1004FC0000220821264801F07FFA0022102124480E
:10050C0001F07AFA00222021214801F075FA00222C
:10051C0040211F4801F070FA002280211C4801F094
:10052C006BFA1A4B1B68092B22D1002202211848A6
:10053C0001F062FA00220421154801F05DFA002254
:10054C000821134801F058FA00221021104801F03C
:10055C0053FA012220210E4801F04EFA00224021CC
:10056C000B4801F049FA00228021094801F044FAB5
:10057C00064B5B68002B2ED100224FF4807104488F
:10058C0001F03AFA00224FF4007103E00C00002055
:10059C0000080140D04801F02FFA00224FF480618E
:1005AC00CD4801F029FA00224FF40061CA4801F04D
:1005BC0023FA00224FF48051C74801F01DFA0022A3
:1005CC004FF40051C44801F017FA01224FF4804156
:1005DC00C14801F011FAC14B5B68012B29D10122F2
:1005EC004FF48071BC4801F007FA00224FF40071FF
:1005FC00B94801F001FA00224FF48061B64801F0CD
:10060C00FBF901224FF40061B34801F0F5F9012226
:10061C004FF48051B04801F0EFF901224FF4005132
:10062C00AD4801F0E9F901224FF48041AA4801F0EC
:10063C00E3F9AA4B5B68022B29D100224FF480719D
:10064C00A54801F0D9F900224FF40071A24801F03D
:10065C00D3F901224FF480619F4801F0CDF90022BB
:10066C004FF400619C4801F0C7F900224FF480510F
:10067C00994801F0C1F901224FF40051964801F05C
:10068C00BBF900224FF48041934801F0B5F9934B2C
:10069C005B68032B29D100224FF480718E4801F046
:1006AC00ABF900224FF400718B4801F0A5F9002240
:1006BC004FF48061884801F09FF900224FF40061EB
:1006CC00854801F099F901224FF48051824801F0DC
:1006DC0093F901224FF400517F4801F08DF900226B
:1006EC004FF480417C4801F087F97C4B5B68042B0C
:1006FC0029D101224FF48071774801F07DF9002255
:10070C004FF40071744801F077F900224FF48061C6
:10071C00714801F071F901224FF400616E4801F04B
:10072C006BF901224FF480516B4801F065F90022FE
:10073C004FF40051684801F05FF900224FF48041FA
:10074C00654801F059F9654B5B68052B29D10022EE
:10075C004FF48071604801F04FF901224FF40071A1
:10076C005D4801F049F900224FF480615A4801F0CC
:10077C0043F900224FF40061574801F03DF9012282
:10078C004FF48051544801F037F900224FF40051D6
:10079C00514801F031F900224FF480414E4801F0EC
:1007AC002BF94E4B5B68062B29D100224FF480713C
:1007BC00494801F021F901224FF40071464801F03B
:1007CC001BF900224FF48061434801F015F9002217
:1007DC004FF40061404801F00FF900224FF48051B2
:1007EC003D4801F009F900224FF400513A4801F05C
:1007FC0003F900224FF48041374801F0FDF8374BE4
:10080C005B68072B29D100224FF48071324801F02C
:10081C00F3F800224FF400712F4801F0EDF800229C
:10082C004FF480612C4801F0E7F801224FF400618D
:10083C00294801F0E1F801224FF48051264801F0DB
:10084C00DBF801224FF40051234801F0D5F80122C6
:10085C004FF48041204801F0CFF8204B5B68082B07
:10086C0029D100224FF480711B4801F0C5F80022F9
:10087C004FF40071184801F0BFF800224FF480616A
:10088C00154801F0B9F800224FF40061124801F04C
:10089C00B3F800224FF480510F4801F0ADF800225C
:1008AC004FF400510C4801F0A7F800224FF480419E
:1008BC00094801F0A1F8094B5B68092B2ED10022E5
:1008CC004FF48071044801F097F800224FF4007146
:1008DC00014801F091F803E0000801400C000020F1
:1008EC0000224FF48061CA4801F086F800224FF4D0
:1008FC000061C74801F080F801224FF48051C448D0
:10090C0001F07AF800224FF40051C14801F074F85C
:10091C0000224FF48041BE4801F06EF8BD4B9B683D
:10092C00002B22D100220121BB4801F065F80022E6
:10093C000221B94801F060F800220421B64801F008
:10094C005BF800220821B44801F056F8002210216F
:10095C00B14801F051F800222021AF4801F04CF8C9
:10096C0001224021AC4801F047F8AA4B9B68012BAF
:10097C0022D101220121A84801F03EF800220221D7
:10098C00A54801F039F800220421A34801F034F8FD
:10099C0001220821A04801F02FF8012210219E48C5
:1009AC0001F02AF8012220219B4801F025F80122B0
:1009BC004021994801F020F8964B9B68022B22D1DC
:1009CC0000220121944801F017F8002202219248DC
:1009DC0001F012F8012204218F4801F00DF80022D9
:1009EC0008218D4801F008F8002210218A4801F0F6
:1009FC0003F801222021884800F0FEFF002240214C
:100A0C00854800F0F9FF834B9B68032B22D1002211
:100A1C000121814800F0F0FF002202217E4800F005
:100A2C00EBFF002204217C4800F0E6FF00220821A5
:100A3C00794800F0E1FF01221021774800F0DCFF3B
:100A4C0001222021744800F0D7FF00224021724877
:100A5C0000F0D2FF6F4B9B68042B22D101220121A5
:100A6C006D4800F0C9FF002202216B4800F0C4FF62
:100A7C0000220421684800F0BFFF012208216648CB
:100A8C0000F0BAFF01221021634800F0B5FF0022EC
:100A9C002021614800F0B0FF002240215E4800F0A8
:100AAC00ABFF5C4B9B68052B22D1002201215A48DD
:100ABC0000F0A2FF01220221574800F09DFF002206
:100ACC000421554800F098FF00220821524800F0FC
:100ADC0093FF01221021504800F08EFF00222021AC
:100AEC004D4800F089FF002240214B4800F084FF64
:100AFC00484B9B68062B22D100220121464800F06E
:100B0C007BFF01220221444800F076FF00220421E1
:100B1C00414800F071FF002208213F4800F06CFFB3
:100B2C00002210213C4800F067FF002220213A48A7
:100B3C0000F062FF00224021374800F05DFF354B8A
:100B4C009B68072B22D100220121334800F054FF6F
:100B5C0000220221304800F04FFF002204212E48D1
:100B6C0000F04AFF012208212B4800F045FF01222A
:100B7C001021294800F040FF01222021264800F0D6
:100B8C003BFF01224021244800F036FF214B9B689B
:100B9C00082B22D1002201211F4800F02DFF00223A
:100BAC0002211D4800F028FF002204211A4800F001
:100BBC0023FF00220821184800F01EFF00221021FC
:100BCC00154800F019FF00222021134800F014FFF3
:100BDC0000224021104800F00FFF0E4B9B68092BA0
:100BEC0029D1002201210C4800F006FF002202212D
:100BFC00094800F001FF00220421074800F0FCFE28
:100C0C0000220821044800F0F7FE0122102105E023
:100C1C00000801400C000020000C0140CF4800F0FF
:100C2C00EBFE00222021CD4800F0E6FE0022402100
:100C3C00CA4800F0E1FECA4BDB68002B28D1002229
:100C4C008021C64800F0D8FE00224FF48071C348C2
:100C5C0000F0D2FE00224FF40071C04800F0CCFE30
:100C6C0000224FF48061BD4800F0C6FE00224FF414
:100C7C000061BA4800F0C0FE00224FF48051B74822
:100C8C0000F0BAFE01224FF40051B44800F0B4FE5B
:100C9C00B34BDB68012B28D101228021AF4800F037
:100CAC00ABFE00224FF48071AC4800F0A5FE002290
:100CBC004FF40071A94800F09FFE01224FF48061AF
:100CCC00A64800F099FE01224FF40061A34800F001
:100CDC0093FE01224FF48051A04800F08DFE0122BA
:100CEC004FF400519D4800F087FE9D4BDB68022BB2
:100CFC0028D100228021994800F07EFE00224FF47A
:100D0C008071964800F078FE01224FF400719348F0
:100D1C0000F072FE00224FF48061904800F06CFEEF
:100D2C0000224FF400618D4800F066FE01224FF462
:100D3C0080518A4800F060FE00224FF40051874831
:100D4C0000F05AFE864BDB68032B28D10022802151
:100D5C00824800F051FE00224FF480717F4800F071
:100D6C004BFE00224FF400717C4800F045FE00223F
:100D7C004FF48061794800F03FFE01224FF400618E
:100D8C00764800F039FE01224FF48051734800F090
:100D9C0033FE00224FF40051704800F02DFE704BD2
:100DAC00DB68042B28D1012280216C4800F024FE42
:100DBC0000224FF48071694800F01EFE00224FF4AF
:100DCC000071664800F018FE01224FF48061634800
:100DDC0000F012FE01224FF40061604800F00CFE9E
:100DEC0000224FF480515D4800F006FE00224FF4C3
:100DFC0000515A4800F000FE594BDB68052B28D1F6
:100E0C0000228021554800F0F7FD01224FF480713B
:100E1C00524800F0F1FD00224FF400714F4800F0F1
:100E2C00EBFD00224FF480614C4800F0E5FD0122FF
:100E3C004FF40061494800F0DFFD00224FF480516F
:100E4C00464800F0D9FD00224FF40051434800F011
:100E5C00D3FD434BDB68062B28D1002280213F4871
:100E6C0000F0CAFD01224FF480713C4800F0C4FD33
:100E7C0000224FF40071394800F0BEFD00224FF4FF
:100E8C008061364800F0B8FD00224FF40061334811
:100E9C0000F0B2FD00224FF48051304800F0ACFD60
:100EAC0000224FF400512D4800F0A6FD2C4BDB68BE
:100EBC00072B28D100228021284800F09DFD00221C
:100ECC004FF48071254800F097FD00224FF400711B
:100EDC00224800F091FD01224FF480611F4800F080
:100EEC008BFD01224FF400611C4800F085FD0122AE
:100EFC004FF48051194800F07FFD01224FF400514E
:100F0C00164800F079FD164BDB68082B2DD100221A
:100F1C008021124800F070FD00224FF480710F48C0
:100F2C0000F06AFD00224FF400710C4800F064FDE3
:100F3C0000224FF48061094800F05EFD00224FF45E
:100F4C000061064800F058FD00224FF48051034820
:100F5C0000F052FD00224FF4005103E0000C014060
:100F6C000C000020184800F047FD184BDB68092BDB
:100F7C0028D100228021144800F03EFD00224FF4BD
:100F8C008071114800F038FD00224FF400710E48BA
:100F9C0000F032FD00224FF480610B4800F02CFD74
:100FAC0001224FF40061084800F026FD00224FF4A6
:100FBC008051054800F020FD00224FF400510248FA
:100FCC0000F01AFD00BF80BD000C01400C00002099
:100FDC0080B500AF00F026FA00F04EF800F0D4F81F
:100FEC0000F086F81E4801F071F91E4B1B68012BAE
:100FFC0008D14FF480411C4800F016FD4FF4FA6004
:10100C0000F028F9194B1B680133184A1360174B71
:10101C001B683B2B07DD154B00221A60144B1B6819
:10102C000133134A1360124B1B683B2B07DD104B2B
:10103C0000221A600F4B1B6801330E4A13600D4BD4
:10104C001B68172B02DD0B4B00221A60FFF778F898
:10105C004FF40041044800F0E7FCFFF701F9C4E746
:10106C00500000204C000020000C01400800002023
:10107C00040000200000002080B590B000AF07F104
:10108C00180328220021184601F0D8FC3B1D002231
:10109C001A605A609A60DA601A610223BB610123FC
:1010AC00BB621023FB6200237B6307F11803184615
:1010BC0000F0D4FC0346002B01D000F0C5F80F2340
:1010CC007B600023BB600023FB6000233B6100239B
:1010DC007B613B1D0021184600F040FF0346002BAE
:1010EC0001D000F0B1F800BF4037BD4680BD000014
:1010FC0080B586B000AF07F1080300221A605A6071
:10110C009A60DA603B4600221A605A601D4B4FF021
:10111C0080421A601B4B41F63F725A60194B0022F9
:10112C009A60184B0922DA60164B00221A61154B93
:10113C0000229A61134801F079F80346002B01D084
:10114C0000F082F84FF48053BB6007F10803194696
:10115C000C4801F00FFA0346002B01D000F074F894
:10116C0000233B6000237B603B461946054801F099
:10117C00D7FB0346002B01D000F066F800BF1837F0
:10118C00BD4680BD5000002080B586B000AF07F191
:10119C00080300221A605A609A60DA60224B9B693D
:1011AC00214A43F0040393611F4B9B6903F0040332
:1011BC007B607B681C4B9B691B4A43F00803936163
:1011CC00194B9B6903F008033B603B6800224FF608
:1011DC00FE71164800F010FC00224FF6FF71144807
:1011EC0000F00AFC4FF6FE73BB600123FB6000238A
:1011FC003B6102237B6107F1080319460B4800F0A1
:10120C0081FA4FF6FF73BB600123FB6000233B6147
:10121C0002237B6107F108031946054800F072FAB6
:10122C0000BF1837BD4680BD0010024000080140C9
:10123C00000C014080B582B000AF786000F024F85B
:10124C0000BF0837BD4680BD80B400AF72B600BF8A
:10125C00FEE7000080B483B000AF7860074B1B68DA
:10126C007A6892FBF3F3064A1360064B00221A606D
:10127C0000BF0C37BD4680BC704700BF1C0000206F
:10128C00480000204C00002080B400AF094B1B68C4
:10129C00002B0BDD074B1B68013B064A1360054B0B
:1012AC001B68002B02D1044B01221A6000BFBD4603
:1012BC0080BC7047480000204C00002080B485B0F2
:1012CC0000AF154B9B69144A43F001039361124B19
:1012DC009B6903F00103BB60BB680F4BDB690E4AD3
:1012EC0043F08053D3610C4BDB6903F080537B607C
:1012FC007B680A4B5B68FB60FB6823F0E063FB6078
:10130C00FB6843F08063FB60044AFB68536000BFDA
:10131C001437BD4680BC70470010024000000140ED
:10132C0080B584B000AF78607B681B68B3F1804FE8
:10133C0013D10C4BDB690B4A43F00103D361094B0E
:10134C00DB6903F00103FB60FB68002200211C2019
:10135C0000F0A1F91C2000F0BAF900BF1037BD460F
:10136C0080BD00BF0010024080B400AFFEE780B427
:10137C0000AFFEE780B400AFFEE780B400AFFEE73D
:10138C0080B400AFFEE780B400AF00BFBD4680BCA8
:10139C00704780B400AF00BFBD4680BC704780B4BE
:1013AC0000AF00BFBD4680BC704780B500AF00F0F9
:1013BC007FF800BF80BD000080B500AF024800F090
:1013CC00D1FF00BF80BD00BF5000002080B400AF33
:1013DC0000BFBD4680BC70470C480D490D4A002328
:1013EC0002E0D458C4500433C4188C42F9D30A4ACE
:1013FC000A4C002301E013600432A242FBD3FFF736
:10140C00E5FF01F0F7FAFFF7E3FD7047000000205D
:10141C002C000020982A00082C0000209C000020A2
:10142C00FEE7000080B500AF084B1B68074A43F08D
:10143C0010031360032000F023F90F2000F008F8CC
:10144C00FFF73CFF0023184680BD00BF0020024080
:10145C0080B582B000AF7860124B1A68124B1B78C3
:10146C0019464FF47A73B3FBF1F3B2FBF3F318465E
:10147C0000F03BF90346002B01D001230EE07B6802
:10148C000F2B0AD8002279684FF0FF3000F003F9D7
:10149C00064A7B681360002300E0012318460837D6
:1014AC00BD4680BD20000020280000202400002024
:1014BC0080B400AF054B1B781A46054B1B681344D0
:1014CC00034A136000BFBD4680BC70472800002053
:1014DC009800002080B400AF024B1B681846BD4634
:1014EC0080BC70479800002080B485B000AF786055
:1014FC007B6803F00703FB600C4BDB68BB60BA68CE
:10150C004FF6FF031340BB60FB681A02BB68134322
:10151C0043F0BF6343F40033BB60044ABB68D36041
:10152C0000BF1437BD4680BC704700BF00ED00E023
:10153C0080B400AF044BDB681B0A03F007031846AA
:10154C00BD4680BC704700BF00ED00E080B483B0A6
:10155C0000AF0346FB7197F90730002B0BDBFB79CF
:10156C0003F01F02064997F907305B09012000FAC6
:10157C0002F241F8232000BF0C37BD4680BC7047F7
:10158C0000E100E080B483B000AF03463960FB712A
:10159C0097F90730002B0ADB3B68DAB20C4997F954
:1015AC0007301201D2B20B4483F800230AE03B68E7
:1015BC00DAB20849FB7903F00F03043B1201D2B2F3
:1015CC000B441A7600BF0C37BD4680BC704700BF79
:1015DC0000E100E000ED00E080B489B000AFF860FD
:1015EC00B9607A60FB6803F00703FB61FB69C3F128
:1015FC000703042B28BF0423BB61FB690433062BB0
:10160C0002D9FB69033B00E000237B614FF0FF3202
:10161C00BB6902FA03F3DA43BB681A407B699A4050
:10162C004FF0FF317B6901FA03F3D9437B680B4020
:10163C00134318462437BD4680BC704780B582B032
:10164C0000AF78607B68013BB3F1807F01D301234D
:10165C000FE00A4A7B68013B53600F214FF0FF30CB
:10166C00FFF790FF054B00229A60044B07221A608B
:10167C00002318460837BD4680BD00BF10E000E0CF
:10168C0080B582B000AF78607868FFF72DFF00BF9F
:10169C000837BD4680BD80B586B000AF0346B96043
:1016AC007A60FB7300237B61FFF742FF78617A68F5
:1016BC00B9687869FFF790FF024697F90F30114629
:1016CC001846FFF75FFF00BF1837BD4680BD80B5D9
:1016DC0082B000AF0346FB7197F907301846FFF74D
:1016EC0035FF00BF0837BD4680BD80B582B000AF66
:1016FC0078607868FFF7A2FF034618460837BD46A6
:10170C0080BD000080B48BB000AF786039600023DE
:10171C007B6200233B6248E101227B6A02FA03F3FD
:10172C00FB613B681B68FA691340BB61BA69FB69D2
:10173C009A4240F037813B685B68A34A93425ED083
:10174C00A14A934275D8A14A934258D09F4A9342DA
:10175C006FD89F4A934252D09D4A934269D89D4A72
:10176C0093424CD09B4A934263D89B4A934246D0B7
:10177C00994A93425DD8122B2AD8122B59D801A220
:10178C0052F823F00B180008E5170008F7170008AB
:10179C00391800083F1800083F1800083F180008C7
:1017AC003F1800083F1800083F1800083F180008B1
:1017BC003F1800083F1800083F1800083F180008A1
:1017CC003F1800083F180008ED1700080118000822
:1017DC00824A934213D02CE03B68DB683B6229E0E1
:1017EC003B68DB6804333B6224E03B68DB6808330E
:1017FC003B621FE03B68DB680C333B621AE03B68E2
:10180C009B68002B02D104233B6213E03B689B686E
:10181C00012B05D108233B627B68FA691A6109E048
:10182C0008233B627B68FA695A6103E000233B6240
:10183C0000E000BFBB69FF2B01D87B6801E07B682F
:10184C0004337B61BB69FF2B02D87B6A9B0002E0EF
:10185C007B6A083B9B003B617B691A680F213B69E3
:10186C0001FA03F3DB431A40396A3B6901FA03F3CB
:10187C001A437B691A603B685B6803F08053002B4A
:10188C0000F09080564B9B69554A43F001039361DD
:10189C00534B9B6903F00103BB60BB68514A7B6AE5
:1018AC009B08023352F82330FB607B6A03F003037E
:1018BC009B000F2202FA03F3DB43FA681340FB6030
:1018CC007B68494A93420DD07B68484A934207D0C3
:1018DC007B68474A934201D1022304E0032302E0D0
:1018EC00012300E000237A6A02F003029200934085
:1018FC00FA681343FB603B497B6A9B080233FA6826
:10190C0041F823203B685B6803F48033002B06D03E
:10191C00384B1A683749BB6913430B6006E0354BEB
:10192C001A68BB69DB43334913400B603B685B6847
:10193C0003F40033002B06D02E4B5A682D49BB699B
:10194C0013434B6006E02B4B5A68BB69DB432949B8
:10195C0013404B603B685B6803F48013002B06D08C
:10196C00244B9A682349BB6913438B6006E0214BD7
:10197C009A68BB69DB431F4913408B603B685B680B
:10198C0003F40013002B06D01A4BDA681949BB6913
:10199C001343CB6006E0174BDA68BB69DB43154990
:1019AC001340CB607B6A01337B623B681A687B6AAD
:1019BC0022FA03F3002B7FF4AFAE00BF00BF2C372D
:1019CC00BD4680BC704700BF0000321000003110D3
:1019DC000000221000002110000012100000111055
:1019EC00001002400000014000080140000C0140C2
:1019FC00001001400004014080B483B000AF786057
:101A0C000B467B8013467B707B78002B03D07A8847
:101A1C007B681A6103E07B881A047B681A6100BF3B
:101A2C000C37BD4680BC704780B485B000AF786081
:101A3C000B467B807B68DB68FB607A88FB68134015
:101A4C001A04FB68D9437B880B401A437B681A61E4
:101A5C0000BF1437BD4680BC7047000080B586B00F
:101A6C0000AF78607B68002B01D101236CE27B68AE
:101A7C001B6803F00103002B00F08780924B5B681E
:101A8C0003F00C03042B0CD08F4B5B6803F00C039E
:101A9C00082B12D18C4B5B6803F48033B3F5803F79
:101AAC000BD1894B1B6803F40033002B6CD07B6883
:101ABC005B68002B68D1012346E27B685B68B3F559
:101ACC00803F06D1804B1B687F4A43F48033136000
:101ADC002EE07B685B68002B0CD17B4B1B687A4A31
:101AEC0023F480331360784B1B68774A23F48023EC
:101AFC0013601DE07B685B68B3F5A02F0CD1724BB3
:101B0C001B68714A43F4802313606F4B1B686E4A49
:101B1C0043F4803313600BE06B4B1B686A4A23F46D
:101B2C0080331360684B1B68674A23F4802313606F
:101B3C007B685B68002B13D0FFF7CCFC386108E0A6
:101B4C00FFF7C8FC02463B69D31A642B01D9032367
:101B5C00FAE15D4B1B6803F40033002BF0D014E06A
:101B6C00FFF7B8FC386108E0FFF7B4FC02463B69AC
:101B7C00D31A642B01D90323E6E1534B1B6803F4FE
:101B8C000033002BF0D100E000BF7B681B6803F032
:101B9C000203002B63D04C4B5B6803F00C03002B4F
:101BAC000BD0494B5B6803F00C03082B1CD1464B44
:101BBC005B6803F48033002B16D1434B1B6803F096
:101BCC000203002B05D07B681B69012B01D001237C
:101BDC00BAE13D4B1B6823F0F8027B685B69DB00C4
:101BEC00394913430B603AE07B681B69002B20D00A
:101BFC00364B01221A60FFF76DFC386108E0FFF7E5
:101C0C0069FC02463B69D31A022B01D903239BE1E1
:101C1C002D4B1B6803F00203002BF0D02A4B1B68E2
:101C2C0023F0F8027B685B69DB00274913430B60E8
:101C3C0015E0264B00221A60FFF74CFC386108E0D7
:101C4C00FFF748FC02463B69D31A022B01D9032348
:101C5C007AE11D4B1B6803F00203002BF0D17B686B
:101C6C001B6803F00803002B3AD07B689B69002BA0
:101C7C0019D0174B01221A60FFF72CFC386108E0D1
:101C8C00FFF728FC02463B69D31A022B01D9032328
:101C9C005AE10D4B5B6A03F00203002BF0D00120DC
:101CAC0000F0A6FA1CE00A4B00221A60FFF712FCA7
:101CBC0038610FE0FFF70EFC02463B69D31A022B8A
:101CCC0008D9032340E100BF00100240000042424B
:101CDC00800442429E4B5B6A03F00203002BE9D165
:101CEC007B681B6803F00403002B00F0A680002324
:101CFC00FB75974BDB6903F08053002B0DD1944B94
:101D0C00DB69934A43F08053D361914BDB6903F059
:101D1C008053BB60BB680123FB758E4B1B6803F4BF
:101D2C008073002B18D18B4B1B688A4A43F4807349
:101D3C001360FFF7CFFB386108E0FFF7CBFB0246DF
:101D4C003B69D31A642B01D90323FDE0814B1B683B
:101D5C0003F48073002BF0D07B68DB68012B06D179
:101D6C007B4B1B6A7A4A43F0010313622DE07B68BC
:101D7C00DB68002B0CD1764B1B6A754A23F00103F0
:101D8C001362734B1B6A724A23F0040313621CE048
:101D9C007B68DB68052B0CD16D4B1B6A6C4A43F0DE
:101DAC00040313626A4B1B6A694A43F00103136212
:101DBC000BE0674B1B6A664A23F001031362644B0A
:101DCC001B6A634A23F0040313627B68DB68002BF5
:101DDC0015D0FFF77FFB38610AE0FFF77BFB02466B
:101DEC003B69D31A41F28832934201D90323ABE009
:101DFC00574B1B6A03F00203002BEED014E0FFF7E5
:101E0C0069FB38610AE0FFF765FB02463B69D31AB0
:101E1C0041F28832934201D9032395E04C4B1B6A63
:101E2C0003F00203002BEED1FB7D012B05D1484BB7
:101E3C00DB69474A23F08053D3617B68DB69002B55
:101E4C0000F08180424B5B6803F00C03082B61D0DF
:101E5C007B68DB69022B46D13F4B00221A60FFF7EF
:101E6C0039FB386108E0FFF735FB02463B69D31AB2
:101E7C00022B01D9032367E0354B1B6803F0007379
:101E8C00002BF0D17B681B6AB3F5803F08D1304B37
:101E9C005B6823F400327B689B682D4913434B60CD
:101EAC002B4B5B6823F474127B68196A7B685B6A42
:101EBC000B43274913434B60274B01221A60FFF752
:101ECC0009FB386108E0FFF705FB02463B69D31AB2
:101EDC00022B01D9032337E01D4B1B6803F0007361
:101EEC00002BF0D02FE01C4B00221A60FFF7F2FA07
:101EFC00386108E0FFF7EEFA02463B69D31A022B71
:101F0C0001D9032320E0124B1B6803F00073002B54
:101F1C00F0D118E07B68DB69012B01D1012313E0C0
:101F2C000B4B5B68FB60FB6803F480327B681B6ABD
:101F3C009A4206D1FB6803F470127B685B6A9A4282
:101F4C0001D0012300E0002318461837BD4680BDA0
:101F5C0000100240007000406000424280B584B026
:101F6C0000AF786039607B68002B01D10123D0E091
:101F7C006A4B1B6803F007033A689A4210D9674B07
:101F8C001B6823F0070265493B6813430B60634BE6
:101F9C001B6803F007033A689A4201D00123B8E0AA
:101FAC007B681B6803F00203002B20D07B681B6846
:101FBC0003F00403002B05D0594B5B68584A43F4DB
:101FCC00E06353607B681B6803F00803002B05D0AB
:101FDC00534B5B68524A43F460535360504B5B68FD
:101FEC0023F0F0027B689B684D4913434B607B6880
:101FFC001B6803F00103002B40D07B685B68012B4E
:10200C0007D1474B1B6803F40033002B15D1012378
:10201C007FE07B685B68022B07D1414B1B6803F0A8
:10202C000073002B09D1012373E03D4B1B6803F0B7
:10203C000203002B01D101236BE0394B5B6823F0C9
:10204C0003027B685B68364913434B60FFF742FA27
:10205C00F8600AE0FFF73EFA0246FB68D31A41F239
:10206C008832934201D9032353E02D4B5B6803F074
:10207C000C027B685B689B009A42EBD1274B1B6878
:10208C0003F007033A689A4210D2244B1B6823F0E2
:10209C00070222493B6813430B60204B1B6803F07B
:1020AC0007033A689A4201D0012332E07B681B682F
:1020BC0003F00403002B08D0194B5B6823F4E06297
:1020CC007B68DB68164913434B607B681B6803F025
:1020DC000803002B09D0124B5B6823F460527B6819
:1020EC001B69DB000E4913434B6000F021F80246DC
:1020FC000B4B5B681B0903F00F030A49CB5C22FAFC
:10210C0003F3094A1360094B1B681846FFF7A0F943
:10211C00002318461037BD4680BD00BF002002408A
:10212C0000100240802A000820000020240000201B
:10213C0090B48AB000AF2A4B3C1D0FCB84E80F0043
:10214C0040F201233B800023FB610023BB61002391
:10215C007B6200237B6100233B62224B5B68FB614B
:10216C00FB6903F00C03042B02D0082B03D02DE0E9
:10217C001D4B3B622DE0FB699B0C03F00F0307F139
:10218C002802134413F8243C7B61FB6903F480336D
:10219C00002B13D0134B5B685B0C03F0010307F1AE
:1021AC002802134413F8283CBB617B690E4A02FBDE
:1021BC0003F2BB69B2FBF3F37B6204E07B690B4A6D
:1021CC0002FB03F37B627B6A3B6202E0064B3B62E1
:1021DC0000BF3B6A18462837BD4690BC704700BF0D
:1021EC00702A00080010024000127A0000093D001D
:1021FC0080B485B000AF78600A4B1B680A4AA2FB1A
:10220C0003235B0A7A6802FB03F3FB6000BFFB68E5
:10221C005A1EFA60002BF9D100BF00BF1437BD461F
:10222C0080BC704720000020D34D621080B582B076
:10223C0000AF78607B68002B01D1012341E07B6803
:10224C0093F83D30DBB2002B06D17B68002283F87B
:10225C003C207868FFF764F87B68022283F83D2005
:10226C007B681A687B6804331946104600F06AFADA
:10227C007B68012283F846207B68012283F83E208C
:10228C007B68012283F83F207B68012283F8402081
:10229C007B68012283F841207B68012283F842206D
:1022AC007B68012283F843207B68012283F8442059
:1022BC007B68012283F845207B68012283F83D204E
:1022CC00002318460837BD4680BD000080B485B099
:1022DC0000AF78607B6893F83D30DBB2012B01D006
:1022EC00012335E07B68022283F83D207B681B6864
:1022FC00DA687B681B6842F00102DA607B681B6855
:10230C00164A934209D07B681B68B3F1804F04D006
:10231C007B681B68124A934211D17B681B689B68CF
:10232C0003F00703FB60FB68062B10D07B681B686F
:10233C001A687B681B6842F001021A6007E07B6830
:10234C001B681A687B681B6842F001021A60002344
:10235C0018461437BD4680BC704700BF002C0140A6
:10236C000004004080B582B000AF78607B681B68C9
:10237C001B6903F00203022B22D17B681B68DB680C
:10238C0003F00203022B1BD17B681B686FF0020267
:10239C001A617B6801221A777B681B689B6903F0C2
:1023AC000303002B03D0786800F0B1F905E07868DE
:1023BC0000F0A4F9786800F0B3F97B6800221A7772
:1023CC007B681B681B6903F00403042B22D17B6818
:1023DC001B68DB6803F00403042B1BD17B681B68B0
:1023EC006FF004021A617B6802221A777B681B6803
:1023FC009B6903F44073002B03D0786800F087F9D5
:10240C0005E0786800F07AF9786800F089F97B6863
:10241C0000221A777B681B681B6903F00803082BE2
:10242C0022D17B681B68DB6803F00803082B1BD1E7
:10243C007B681B686FF008021A617B6804221A77AC
:10244C007B681B68DB6903F00303002B03D07868FF
:10245C0000F05DF905E0786800F050F9786800F05C
:10246C005FF97B6800221A777B681B681B6903F095
:10247C001003102B22D17B681B68DB6803F0100360
:10248C00102B1BD17B681B686FF010021A617B68E4
:10249C0008221A777B681B68DB6903F44073002BF6
:1024AC0003D0786800F033F905E0786800F026F97D
:1024BC00786800F035F97B6800221A777B681B6816
:1024CC001B6903F00103012B0ED17B681B68DB68D1
:1024DC0003F00103012B07D17B681B686FF001022D
:1024EC001A617868FEF7A6FE7B681B681B6903F00F
:1024FC008003802B0ED17B681B68DB6803F08003A4
:10250C00802B07D17B681B686FF080021A6178689A
:10251C0000F067FA7B681B681B6903F04003402BD3
:10252C000ED17B681B68DB6803F04003402B07D19E
:10253C007B681B686FF040021A61786800F0F9F84C
:10254C007B681B681B6903F02003202B0ED17B6872
:10255C001B68DB6803F02003202B07D17B681B680A
:10256C006FF020021A61786800F032FA00BF083769
:10257C00BD4680BD80B584B000AF786039607B68A3
:10258C0093F83C30012B01D10223B3E07B6801228C
:10259C0083F83C207B68022283F83D207B681B6813
:1025AC009B68FB60FB6823F07703FB60FB6823F4FC
:1025BC007F43FB607B681B68FA689A603B681B680A
:1025CC00B3F5005F3ED0B3F5005F00F28780B3F542
:1025DC00805F00F08580B3F5805F7FD8702B1AD0B8
:1025EC00702B7BD8602B50D0602B77D8502B3CD0E5
:1025FC00502B73D8402B58D0402B6FD8302B64D035
:10260C00302B6BD8202B60D0202B67D8002B5CD0C4
:10261C00102B5AD062E07B6818683B6899683B685D
:10262C005A683B68DB6800F05CF97B681B689B6848
:10263C00FB60FB6843F07703FB607B681B68FA6800
:10264C009A604EE07B6818683B6899683B685A68EA
:10265C003B68DB6800F045F97B681B689A687B680F
:10266C001B6842F480429A603BE07B6818683B68C8
:10267C0059683B68DB681A4600F0BCF87B681B683D
:10268C005021184600F013F92BE07B6818683B6862
:10269C0059683B68DB681A4600F0DAF87B681B68FF
:1026AC006021184600F003F91BE07B6818683B6852
:1026BC0059683B68DB681A4600F09CF87B681B681D
:1026CC004021184600F0F3F80BE07B681A683B6871
:1026DC001B681946104600F0EAF802E000BF00E063
:1026EC0000BF7B68012283F83D207B68002283F8C1
:1026FC003C20002318461037BD4680BD80B483B003
:10270C0000AF786000BF0C37BD4680BC704780B40A
:10271C0083B000AF786000BF0C37BD4680BC7047FB
:10272C0080B483B000AF786000BF0C37BD4680BC6E
:10273C00704780B483B000AF786000BF0C37BD46E3
:10274C0080BC704780B485B000AF786039607B681E
:10275C001B68FB607B68254A934207D07B68B3F10A
:10276C00804F03D07B68224A934208D1FB6823F048
:10277C007003FB603B685B68FA681343FB607B6823
:10278C001A4A934207D07B68B3F1804F03D07B6821
:10279C00174A934208D1FB6823F44073FB603B68F3
:1027AC00DB68FA681343FB60FB6823F080023B682C
:1027BC005B691343FB607B68FA681A603B689A6834
:1027CC007B68DA623B681A687B689A627B68074AA6
:1027DC00934203D13B681A697B681A637B680122B8
:1027EC005A6100BF1437BD4680BC7047002C0140B5
:1027FC000004004080B487B000AFF860B9607A6024
:10280C00FB681B6A7B61FB681B6A23F00102FB6897
:10281C001A62FB689B693B613B6923F0F0033B61E7
:10282C007B681B013A6913433B617B6923F00A0304
:10283C007B617A69BB6813437B61FB683A699A6177
:10284C00FB687A691A6200BF1C37BD4680BC7047B2
:10285C0080B487B000AFF860B9607A60FB681B6A1F
:10286C0023F01002FB681A62FB689B697B61FB68B2
:10287C001B6A3B617B6923F470437B617B681B03A0
:10288C007A6913437B613B6923F0A0033B61BB680E
:10289C001B013A6913433B61FB687A699A61FB68D7
:1028AC003A691A6200BF1C37BD4680BC704780B4C1
:1028BC0085B000AF786039607B689B68FB60FB6813
:1028CC0023F07003FB603A68FB68134343F0070383
:1028DC00FB607B68FA689A6000BF1437BD4680BC09
:1028EC00704780B487B000AFF860B9607A603B6025
:1028FC00FB689B687B617B6923F47F437B613B684E
:10290C001A027B681A43BB6813437A6913437B61D1
:10291C00FB687A699A6000BF1C37BD4680BC704763
:10292C0080B485B000AF786039607B6893F83C3038
:10293C00012B01D1022341E07B68012283F83C206A
:10294C007B68022283F83D207B681B685B68FB6018
:10295C007B681B689B68BB60FB6823F07003FB60A3
:10296C003B681B68FA681343FB607B681B68FA685A
:10297C005A607B681B68144A934209D07B681B68B9
:10298C00B3F1804F04D07B681B68104A93420CD182
:10299C00BB6823F08003BB603B685B68BA68134379
:1029AC00BB607B681B68BA689A607B68012283F8FD
:1029BC003D207B68002283F83C2000231846143706
:1029CC00BD4680BC704700BF002C01400004004095
:1029DC0080B483B000AF786000BF0C37BD4680BCBC
:1029EC00704780B483B000AF786000BF0C37BD4631
:1029FC0080BC704770B500260C4D0D4C641BA410A8
:102A0C00A64209D100F022F800260A4D0A4C641B9C
:102A1C00A410A64205D170BD55F8043B9847013669
:102A2C00EEE755F8043B98470136F2E7902A000888
:102A3C00902A0008902A0008942A000803460244B1
:102A4C00934200D1704703F8011BF9E7F8B500BFBA
:102A5C00F8BC08BC9E467047F8B500BFF8BC08BC73
:042A6C009E467047CB
:102A700002030405060708090A0B0C0D0E0F1010BF
:102A8000000000000000000001020304060708091E
:042A90003101000808
:042A94000D01000828
:102A98000F000000080000003200000001000000E4
:102AA8000200000003000000040000000A0000000B
:0C2AB8000024F4001000000001000000E9
:04000005080013E5F7
:00000001FF
